:020000040800F2
:10000000A84D002071020008370D0008A10C00085F
:10001000350D0008A1030008350F0008000000009E
:10002000000000000000000000000000B101000816
:10003000A3030008000000000D020008590D00088D
:100040008B0200088B0200088B0200088B0200085C
:100050008B0200088B0200088B0200088B0200084C
:100060008B0200088B0200088B0200088B0200083C
:100070008B0200088B0200088B0200088B0200082C
:100080008B0200088B0200088B02000800000000B1
:100090000000000000000000000000008B020008CB
:1000A0008B0200088B0200088B0200088B020008FC
:1000B0008B0200088B0200088B0200088B020008EC
:1000C0008B0200088B0200088B0200088B020008DC
:1000D0008B0200088B0200088B0200080000000061
:1000E0008B0200088B0200088B0200080000000051
:1000F0000000000000000000000000008B0200086B
:10010000000000008B0200088B0200088B02000830
:1001100000000000000000000000000000000000DF
:100120008B0200088B0200088B0200088B0200087B
:100130008B0200080000000000000000000000002A
:100140000000000000000000000000008B0200081A
:100150008B0200088B0200088B0200088B0200084B
:100160008B0200088B020008000000000000000065
:10017000000000000000000000000000000000007F
:10018000000000008B0200080000000000000000DA
:100190008B0200088B020008DFF810D000F0EEF8A8
:1001A00000480047750F0008AFF30080A84D0020FD
:1001B0002C4B19680868B0E8F04F80F30988BFF34A
:1001C0006F8F4FF0000080F311887047000000002F
:1001D00008480068006880F308884FF0000080F34A
:1001E000148862B661B6BFF34F8FBFF36F8F00DF25
:1001F00000BF00BF08ED00E0DFF80C00016841F42B
:1002000070010160704700BF88ED00E0EFF30980E6
:10021000BFF36F8F134B1A681EF0100F08BF20ED4D
:10022000108A20E9F04F106009B44FF0500080F3BD
:100230001188BFF34F8FBFF36F8F01F0B7FD4FF001
:10024000000080F3118809BC19680868B0E8F04F15
:100250001EF0100F08BFB0EC108A80F30988BFF3BE
:100260006F8F704718000020EFF305807047000083
:100270000648804706480047FEE7FEE7FEE7FEE740
:10028000FEE7FEE7FEE7FEE7FEE7FEE7F10D00080A
:10029000990100082DE9F05F0546002092469B4633
:1002A00088460646814640241BE02846414647468C
:1002B000224600F053F853465A46C01A914110D3D3
:1002C00011461846224600F03AF82D1A67EB01084D
:1002D0004F4622460120002100F031F817EB0009BB
:1002E0004E41201EA4F10104DFDC484631462A4677
:1002F0004346BDE8F09F40EA01039B0703D009E0B5
:1003000008C9121F08C0042AFAD203E011F8013B01
:1003100000F8013B521EF9D27047D2B201E000F85A
:10032000012B491EFBD270470022F6E710B5134699
:100330000A4604461946FFF7F0FF204610BD202A62
:1003400004DB203A00FA02F1002070479140C2F12C
:10035000200320FA03F3194390407047202A04DB5E
:10036000203A21FA02F00021704721FA02F3D0402E
:10037000C2F120029140084319467047064C074DD0
:1003800006E0E06840F0010394E807009847103465
:10039000AC42F6D3FFF704FF7C2800089C28000835
:1003A000FEE770472DE9F84F00224FF001080325C2
:1003B0004FF00F0E0B6808FA02F42340A34271D1EC
:1003C0004E68012E05D0022E03D0112E01D0122E20
:1003D00015D18668570005FA07FC26EA0C06D1F805
:1003E0000CC00CFA07FC4CEA060CC0F808C04668C2
:1003F000A6430C79C4F30014944034434460C668A7
:10040000570005FA07FC8C6826EA0C06BC4034430A
:10041000C4604C68022C01D0122C13D1D40800EB1C
:100420008404A346D4F8209054074FEAD46A0EFA05
:100430000AF629EA06090E6906FA0AF646EA0906E4
:10044000CBF8206004680E7924EA0C0406F0030659
:10045000BE40264306604C68E40056D52E4C266804
:1004600046F480462660246822F0030604F48044A3
:1004700000942A4C3444A446D4F808489607370F11
:100480000EFA07F6B443264EB04201D1002615E01D
:10049000244EB04201D1012610E0234EB04202D1D9
:1004A00002260BE031E0214EB04201D1032605E0E7
:1004B0001F4EB04201D1042600E00726BE4026436D
:1004C000CCF808681B4E34684F689C43FF0300D586
:1004D0001C433460174E361D34684F689C43BF037D
:1004E00000D51C433460134E083634684F689C4373
:1004F000FF0200D51C4334600E4E0C3634684F6842
:100500009C43BF0200D51C433460521C102AFFF4E8
:1005100051AFBDE8F88F0000443802400030014080
:10052000000002400004024000080240000C0240AB
:1005300000100240003C0140426931EA020200D151
:100540000904816170470AB1816170470904FBE7C2
:100550000148806870470000080000200248816858
:100560000278114481607047080000200B4810B5E4
:10057000016841F400710160016841F4806101602B
:10058000016841F480710160032000F061F80020EF
:1005900000F006F800F024F8002010BD003C0240F6
:1005A00070B50D4D04464FF47A712878B1FBF0F028
:1005B0000A490968B1FBF0F000F0F6FA48B9102CCE
:1005C00007D200222146501E00F022F800206C6065
:1005D00070BD012070BD0000080000201400002044
:1005E0000A4808B5016841F480410160006800F4E0
:1005F000804000900548001F016841F08051016073
:10060000006800F08050009008BD000044380240AF
:10061000F0B40E4B1B680C46C3F30223C3F107056D
:10062000042D00D90425191D072901D2002300E05B
:10063000DB1E012606FA05F1491E214099409E4025
:10064000761E16403143F0BC00F075BC0CED00E0A6
:10065000064900F0070208684FF6FF03184040EA19
:100660000220034A10430860704700000CED00E0D0
:100670000000FA052DE9F0470E46050065D0DFF8C9
:100680001481D8F80000F7B200F00F00B04207D292
:1006900088F80070D8F8000000F00F00B04254D184
:1006A00028683D4C810712D5400703D5206840F4E7
:1006B000E05020602878000703D5206840F46040AF
:1006C00020602068A96820F0F000084320602878A6
:1006D000C0072DD0304968680839012812D0022897
:1006E00013D0032811D00968890700292DDA216861
:1006F00021F0030101432160FFF72AFF814641F207
:10070000883A0EE009688903EFE709688901ECE798
:10071000FFF71EFFA0EB0901514502D90320BDE8F8
:10072000F0872068696800F00C00B0EB810FEFD112
:10073000D8F80010404601F00F01B14207D9077008
:10074000006800F00F00B04201D00120E7E72878F0
:10075000400705D52068E96820F4E0500843206090
:100760002878000706D52068296920F4604040EA0F
:10077000C100206000F038F82168084AC1F3031175
:10078000515CC8400649086006480068FFF708FF4A
:100790000020C4E7003C0240083802404C28000812
:1007A000140000200C000020044805490068096876
:1007B000044AC1F38221515CC840704714000020F4
:1007C000083802405C2800080448054900680968A8
:1007D000044AC1F34231515CC84070471400002004
:1007E000083802405C280008154810B5006810F071
:1007F0000C02144813D01449042A0FD0082A0ED131
:100800000F4C241F2268236802F03F025B0207D5C9
:100810002068C0F38810A0FB010106E0084610BD67
:100820002168C1F38811A1FB00010023FFF732FD0D
:100830002168C1F30141491C4900B0FBF1F010BD32
:10084000083802400024F40040787D012DE9F84F7B
:1008500004006ED02078DFF83C93C007A9F10405AE
:100860004AD009F104000168C1F38101012908D0CF
:100870000068C0F3810002280AD1D9F800004002C4
:1008800006D52868800337D560680028E1D033E0BA
:100890006068B0F5803F10D0B0F5A02F286810D068
:1008A00020F480302860286820F480202860606868
:1008B000A8B1FFF74DFE06460DE0286840F48030F1
:1008C000F4E740F480202860F7E700BFFFF740FE20
:1008D000801B642873D828688003F7D50CE0FFF7E5
:1008E00037FE064605E000BFFFF732FE801B642896
:1008F000F0D828688003F7D42078DFF89C8280073E
:100900004FF0000A3ED5A348001D016811F00C0FFE
:1009100008D00068C0F3810002280BD1D9F800008C
:10092000400207D42868800716D5E068012800D166
:1009300012E02BE1E068B8B10120C8F80000FFF731
:1009400007FE064605E000BFFFF702FE801B0228F7
:10095000C0D828688007F7D52868216920F0F800FA
:1009600040EAC10028600DE0C8F800A0FFF7F0FDE4
:10097000064604E0FFF7ECFD801B02281FD828681C
:100980008007F7D42078000722D5824E834861691A
:10099000703671B101210160FFF7DAFD074604E00E
:1009A000FFF7D6FDC01B022809D830688007F7D5AD
:1009B0000EE0C0F800A0FFF7CBFD074605E082E09F
:1009C000FFF7C6FDC01B02287DD830688007F7D42A
:1009D0002078400768D5DFF8BCB100270BF13C0B4D
:1009E000DBF80000C0000BD4DBF8001041F08051B0
:1009F000CBF80010DBF80000012700F080500090D9
:100A0000674E3068C00510D4306840F480703060A4
:100A1000FFF79EFD009005E0FFF79AFD0099401A50
:100A2000022850D83068C005F6D55A4EA0686C36FA
:100A300001280FD00528306810D020F00100306068
:100A4000306820F004003060A068B8B1FFF780FD86
:100A500000900FE0306840F00100F4E740F004003F
:100A60003060F7E7FFF774FD0099411A41F28830D2
:100A7000814266D830688007F4D50EE0FFF768FD44
:100A8000009007E0FFF764FD0099411A41F28830B9
:100A9000814256D830688007F4D42FB1DBF80010BB
:100AA00021F08051CBF80010A069C8B33949091D65
:100AB0000968C1F3810102294AD00228504607D0B3
:100AC000C8F8600000E03CE0FFF742FD04463BE070
:100AD0004746C8F86000FFF73BFD064605E000BF4B
:100AE000FFF736FD801B02282BD828688001F7D439
:100AF000D4E907010843A16A2A4A490802EB0141E7
:100B0000626A41EA8211084394F82C1040EA0161BC
:100B1000C9F8001001203866FFF71AFD044606E008
:100B200036E000BFFFF714FD001B022809D8286833
:100B30008001F7D52CE000BFFFF70AFD001B02285B
:100B400002D90320BDE8F88F28688001F4D41FE0A3
:100B50000128F7D0D9F80000E26900F48001914241
:100B600014D1226A00F03F0191420FD147F6C071C3
:100B7000626A0140914209D1A26A00F44031914277
:100B800004D1E16A00F07060884201D00120D9E709
:100B90000020D7E70438024000004742800E474259
:100BA000007000400000FFFF10B5401EB0F1807FD4
:100BB00001D3012010BD4FF0E02460610F216017C8
:100BC00000F0B9F90020A06107202061002010BDCD
:100BD00070B5040004D094F83900002510B106E087
:100BE000012070BD84F83850204600F023F82420FE
:100BF00084F839002068C16821F40051C1602046A2
:100C000000F004F92068016921F490410161206835
:100C1000416921F02A0141612068C16841F4005115
:100C2000C160E563202084F8390084F83A00002090
:100C300070BD000010B586B0044614216846FFF769
:100C400073FB14492068884221D1134800210268AF
:100C500042F010020260006800F0100005900E489B
:100C60001438026842F001020260006800F00100DE
:100C700005904FF4C06000900220CDE901010320EF
:100C800003900720049069460448FFF78BFB06B0E9
:100C900010BD000000100140443802400000024036
:100CA000FEE7000030B50B4C4FF06041094B803C33
:100CB0000CE01D68ED0708D02568ED0701D104E0C0
:100CC00000BF0D68002DFBD00A70401C0278002A7E
:100CD000EFD130BD800E00E070B586B014216846BB
:100CE000FFF722FB11480024016841F00401016074
:100CF000016801F004010591016841F00101016002
:100D00000068012200F00100094E550305902946B4
:100D10003046FFF718FC01200095CDE90104694633
:100D200030460394FFF73EFB06B070BD30380240FA
:100D300000080240FEE77047064D4FF400544FF4A0
:100D40007A7621462846FFF7F7FB304600F048F94F
:100D5000F7E700000008024010B5FFF7FFFB01F0C5
:100D60009BFB012803D0BDE8104001F0CBB810BDBB
:100D700030B593B030216846FFF7D6FA14210CA89D
:100D8000FFF7D2FA18480025016841F08051016050
:100D9000006800F0805011901448016841F440410F
:100DA00001600068022400F440401190012003908B
:100DB0001020009406940490CDE90750C020CDE99E
:100DC000090404200B906846FFF740FD0CA90F2092
:100DD00081E83100E002CDE90F0503210CA8FFF7FF
:100DE00049FC13B030BD00004038024000700040A4
:100DF0000548016841F47001016003494FF000604B
:100E0000803908607047000088ED00E02DE9F0416E
:100E1000044600680169E26821F440511143016110
:100E20002169A068E26908436169114308432168A8
:100E3000CA6849F20C639A430243CA602068416958
:100E4000A26921F4407111434161E06919276425C9
:100E50003226B0F5004F354A354920684FF000087A
:100E600006D0884201D0904236D1FFF7ADFC35E084
:100E7000884201D0904202D1FFF7A6FC01E0FFF7C3
:100E800093FC61684A18A0FB070148EB0803FFF7D1
:100E900001FA0146B0FBF5F00201B1FBF5F06FF08D
:100EA0001803584301EB800006EBC000B0FBF5F0DF
:100EB00000F0F80002EB4002B1FBF5F0584301EB03
:100EC000800006EBC000B0FBF5F000F007002168E1
:100ED00010448860BDE8F081FFF766FC61688B0F05
:100EE0008A00A0FB0701FFF7D5F90146B0FBF5F03A
:100EF0006FF01802504301EB800006EB0010B0FBCE
:100F0000F5F000F0F002B1FBF5F002EB0012B1FBDE
:100F1000F5F06FF01803584301EB800006EB00106A
:100F2000B0FBF5F000F00F00D1E700000014014025
:100F300000100140FEE70907090E002804DB00F15C
:100F4000E02080F80014704700F00F0000F1E0206E
:100F500080F8141D704702E008C8121F08C1002A5B
:100F6000FAD170477047002001E001C1121F002A2A
:100F7000FBD17047FFF7FAFAFFF7FAFEFFF7ACFE76
:100F8000124811490C2201604FF4E1314160002107
:100F90008160C160C0E904128161C161FFF718FE80
:100FA00000F038F80A4A00210A4800F06BF80A4CB1
:100FB000074A002120602432084800F063F860608E
:100FC00000F042F8FEE70000001001409000002011
:100FD00004280008390D000800000020C11900088D
:100FE00010B5EFF3058179B9EFF3108111B9EFF383
:100FF000118119B106490968022905D0002408B1F8
:1010000000F020FE204610BD6FF00504FAE7000056
:1010100068000020EFF3058068B9EFF310820949FA
:10102000086812B9EFF311820AB1022803D028B17F
:101030004FF0FF3070476FF00500704701200860E7
:10104000002070476800002010B5EFF3058070B9EC
:10105000EFF310820A49086812B9EFF311820AB15E
:10106000022804D0012805D04FF0FF3010BD6FF0EA
:10107000050010BD0220086000F04CFE002010BDED
:10108000680000202DE9FF414FEA01034FF0000501
:10109000EFF30581039599BBEFF3108111B9EFF3DD
:1010A000118119B11F490968022938D040B380263F
:1010B000182100244AB3176807B13C4697691FB14D
:1010C00039467F1E382F02D21779FF0703D0002040
:1010D00004B0BDE8F081576907B1BE08D2F808C076
:1010E000BCF1000F0DD0D5685C2D18D312693AB150
:1010F00037B18DE806103246214601F0A2F903907F
:101100000DE0D7685FB912694AB903AACDE90012A8
:10111000B2B2214601F068F9012800D00395039886
:10112000D6E70000680000202DE9F041134C0F467F
:10113000054666692068001D00F054FC681C07D154
:1011400037B12168BDE8F0410D48091D00F09ABC97
:1011500020683544B5424560216805D2A068BDE8E5
:10116000F041091D00F076BC6068091D00F072FCBA
:10117000206B854200D22563BDE8F0811800002075
:10118000C00500202DE9F041054600F087FC2D4CFC
:101190002069401C206120682B4F10B1E06930B3FA
:1011A0002BE025602069012827D1002606EB860068
:1011B00007EB800000F040FC761C382EF6D3234865
:1011C00000F03AFC2148143000F036FC1F4828306B
:1011D00000F032FC1D483C3000F02EFC1B48503023
:1011E00000F02AFC194860601430A06005E0206817
:1011F000E96AC06A884200D82560E06A401CE06263
:101200006864E86AA169884200D9A06100EB8000A7
:1012100007EB8000291D00F035FC00F05FFCE06961
:1012200000280CD02068E96AC06A884207D20849C1
:101230004FF080500860BFF34F8FBFF36F8FBDE852
:10124000F08100001800002010010020700500202F
:1012500004ED00E038B500F021FC104CA068C8B9DE
:101260000F4800F0E9FB0E48143000F0E5FB0C4895
:101270002060143060600A4B00202833009003F196
:10128000500210210A2000F053FEA06010B105A109
:1012900000F0A2FCBDE8384000F020BC5400002063
:1012A000D4050020546D72510000000030B4026C6F
:1012B0000B46002A0BD0C1681144C1608468A1426A
:1012C00001D30168C16030BC1846FFF714B830BCC8
:1012D00070472DE9F041856B174604460026026CE5
:1012E00082B1C7B1E068FFF706F8E168206C091A1F
:1012F000E1602268914202D2A168081AE060022FE0
:1013000016D017E02068A8B9A06801F03DF906469C
:101310000020A0600EE06068FEF7EDFF216C6068C1
:1013200008446060A168884204D32068606001E0DE
:1013300005B16D1E6D1CA5633046BDE8F08110B58A
:10134000044690F8590058B101280CD002280FD05B
:10135000502080F31188BFF34F8FBFF36F8FFEE7EC
:10136000206B00F0CFFB2046BDE8104000F0CABB68
:1013700010BD000010484FF47051420706D0C01D48
:101380000D4920F00700411AC1F570510B4A0023A6
:101390000144C2E900030839103A21F00701116045
:1013A0004B600B600B1AC0E9001393604FF00040D4
:1013B0005360D06070470000A40D00207C00002026
:1013C000144E154CA6F29C474FF08058DFF84C9015
:1013D00012E000BF00F062FBF068C568281D00F055
:1013E00001FB2069401E2061E068401EE06000F0C3
:1013F00075FB2846FFF7A3FFE0680028EAD13868AC
:101400000128F9D9C9F80080BFF34F8FBFF36F8F60
:10141000F2E70000AC0500201800002004ED00E019
:1014200070B51D46049C51B1C4F80020C4E90F01F9
:101430000121204600F0B0FD84F84C5070BD2460BE
:10144000F4E700002DE9F05F8846DDE90B941546CE
:10145000834691009A460A9EA522206BFEF75DFF07
:101460006FF00301206B01EB8501084420F00707B2
:10147000780707D0502080F31188BFF34F8FBFF358
:101480006F8FFEE70025B8F1000F0FD05FF000006E
:10149000221818F8001082F8341018F8001011B152
:1014A000401C1028F4D384F8435001E084F83450F1
:1014B000382E00D33726E662C4E91365201D00F0FC
:1014C000C6FA04F1180000F0C2FA2461C6F138002F
:1014D0006462A061656584F85850524659463846A2
:1014E00000F058FA2060B9F1000F01D0C9F80040AF
:1014F000BDE8F09F30B5114900E011460A6882420C
:10150000FBD34B685C18844203D1406818444860A0
:10151000084643681C18944209D1084C103C2468C2
:10152000A24209D052681A4442600A6812680260F6
:10153000814200D0086030BD0460F9E77C000020E3
:1015400070B5002441600B4D0061914206D8D11A5C
:101550008269914206D2011D686807E09A4203D26F
:10156000994201D3012403E0011D286800F072FABA
:10157000204670BD5400002010B5044600F08EFADD
:10158000A06B28B15FF0000400F0A8FA204610BD5F
:101590000124F9E730B589B03C4D6EE0049800288D
:1015A00006DADDE90601059A90470498002864DB15
:1015B000069C606910B1201D00F014FA03A800F029
:1015C000D7F8024604980A2857D2DFE800F005054C
:1015D000052D334A05052D3394F8280040F001000D
:1015E00084F828000599A069059B01442046FFF76F
:1015F000A7FF68B3216A2046884794F8280040076F
:101600003BD5002000900598A16900234218194697
:10161000204601F0C3F8D8B9502080F31188BFF3F9
:101620004F8FBFF36F8FFEE714F8280F20F00100F3
:10163000207022E094F8280040F0010084F828008F
:101640000598A06128B1811813462046FFF778FF5E
:1016500013E0502080F31188BFF34F8FBFF36F8FDB
:10166000FEE794F82800810703D4204600F04AFAE8
:1016700003E020F0010084F82800002204A9A868F3
:1016800000F0DCFD002889D109B030BD54000020F5
:101690002DE9FC410F46054600F080FB01A800F053
:1016A00067F80446019818B100F0E6FFBDE8FC8138
:1016B000254EAFB170680068D0B30027291B3A46A9
:1016C000B06800F09DFA00F0D7FF0028EED11F4966
:1016D0004FF080500860BFF34F8FBFF36F8FE5E787
:1016E000A542EBD800F0C8FF30682746C068C46840
:1016F000201D00F077F994F82800410719D5A0695A
:101700002B4641193A462046FFF71AFFA8B10020A0
:101710000346014600902A46204601F03FF860B992
:10172000502080F31188BFF34F8FBFF36F8FFEE718
:1017300007E020F0010084F82800216A204688474D
:10174000B4E70127BAE700005400002004ED00E0F0
:1017500006484168096829B14168C968C96849688B
:10176000016370474FF0FF31FAE7000018000020D6
:1017700070B5054600F09EFE064E04463069844270
:1017800003D200F009F8012000E000202860204684
:10179000346170BD54000020F8B5194D20E0C068D8
:1017A000C4680668201D00F01DF9216A204688479C
:1017B00094F82800400713D5A0693044B04206D9F8
:1017C00024616060211D286800F044F908E00020D1
:1017D0000346014600903246204600F0DFFF38B154
:1017E000286801680029DAD16968C5E90010F8BDE8
:1017F000502080F31188BFF34F8FBFF36F8FFEE748
:101800005400002008484068401C4FF0500080F30E
:10181000118804D0BFF34F8FBFF36F8FFEE7BFF384
:101820004F8FBFF36F8FFEE784000020074C2068C6
:10183000016841B1C0680021D0F80000FFF728FF1F
:10184000FFF7A8FEF3E701210020F7E7540000208E
:101850002DE9F041044600F021F994F9455004F1D6
:10186000240609E0606A48B1304600F0CDFE08B1B8
:1018700000F016FA6D1E6DB2002DF3DC4FF0FF364E
:1018800084F8456000F02AF900F008F994F9445012
:1018900004F1100709E0206948B1384600F0B4FEB1
:1018A00008B100F0FDF96D1E6DB2002DF3DC84F877
:1018B0004460BDE8F04100F011B900002DE9F041AD
:1018C0000546002700F06AFA314E306808B9FFF784
:1018D00051FDF06805424BD1C5B3083568070ED0FD
:1018E00005F00700C0F108000544680707D0502044
:1018F00080F31188BFF34F8FBFF36F8FFEE72DB3D7
:101900007068854234D82248103001460C6801E0E6
:1019100020460C466168A94202D221680029F7D10D
:1019200031688C4224D007682168016060680837FC
:10193000411B10290FD96019420708D0502080F3AD
:101940001188BFF34F8FBFF36F8FFEE710E0416048
:101950006560FFF7CFFD61687068401A7060B2681B
:10196000904200D2B060F06801430020C4E9000159
:1019700000F082FE780707D0502080F31188BFF373
:101980004F8FBFF36F8FFEE73846BDE8F081000050
:101990006C00002010B5031F4FF080741C601B1FEB
:1019A00021F001011960191F044B0B6014390A6002
:1019B000091F6FF0020244380A6010BD05180008C4
:1019C0004FF47A742046FFF70BFB02A0FFF76AF989
:1019D000F8E7000048656C6C6F20576F726C6421EB
:1019E0000D0A0000D0E9013201699A60D0E90123B3
:1019F0005A604A68824201D182684A6000220261CC
:101A00000868401E0860086870470000034B0360C8
:101A100003F15C000860802010607047EC06002035
:101A2000044B036003F15C0008604FF480701060A9
:101A3000704700004809002000F108014FF0FF3214
:101A4000C0E90112C16001610021016070470021FD
:101A50000161704730B50B685A1C02D000F10802D2
:101A600002E0026904E02246546825689D42FAD9E2
:101A700053684B6099608A60516008610168491C35
:101A8000016030BD42684A6093688B60936859601A
:101A9000916008610168491C01607047502080F323
:101AA0001188BFF34F8FBFF36F8F0A494868401CFE
:101AB000486001280CD10848006810F0FF0F07D0DB
:101AC000502080F31188BFF34F8FBFF36F8FFEE775
:101AD000704700008400002004ED00E008494868D9
:101AE00028B1401E486001D180F311887047502012
:101AF00080F31188BFF34F8FBFF36F8FFEE70000B5
:101B00008400002070B5002827D0144DA0F10804EF
:101B10006168E868014207D1502080F31188BFF363
:101B20004F8FBFF36F8FFEE722683AB1502080F3EA
:101B30001188BFF34F8FBFF36F8FFEE78143616062
:101B400000F02CF960686968084468602046FFF777
:101B5000D1FCBDE8704000F08FBD70BD6C0000206E
:101B60004FF0E02000210161816105494FF47A7254
:101B70000968B1FBF2F1491E41610721016170471B
:101B80001400002010B5FEF76FFB114910280ED38A
:101B900000F1E02090F8F0030A78904207D250203C
:101BA00080F31188BFF34F8FBFF36F8FFEE70948B3
:101BB0000068896800F4E060884207D9502080F30B
:101BC0001188BFF34F8FBFF36F8FFEE710BD00008A
:101BD000840000200CED00E010B5084B002200BF8F
:101BE00053F832401CB1521C082AF9D310BD43F8F7
:101BF000321003EBC201486010BD0000D00000208D
:101C000070B515460E460446FFF748FF94F9441098
:101C10000020491C01D184F8440094F94510491C66
:101C200001D184F84500FFF759FFA06B28B92A4677
:101C3000314604F1240000F051F82046BDE8704020
:101C4000FFF706BE10B5020014D00F48806B38B104
:101C5000502080F31188BFF34F8FBFF36F8FFEE7E3
:101C600000F09CF800211046FFF75EFA00F004FD3A
:101C7000002807D105494FF080500860BFF34F8F0F
:101C8000BFF36F8F10BD00001800002004ED00E0CE
:101C900002498A6A02604969416070471800002061
:101CA00001490120486270471800002010B50C4619
:101CB00050B1094909681831FFF7CCFE2046BDE84C
:101CC00010400121FFF730BA502080F31188BFF394
:101CD0004F8FBFF36F8FFEE71800002070B51446DA
:101CE0000D4668B10A4909681831FFF7CBFE0CB1FF
:101CF0004FF0FF3521462846BDE87040FFF714BA83
:101D0000502080F31188BFF34F8FBFF36F8FFEE732
:101D10001800002030B587B00024039405AA04A958
:101D200003A80494FFF772FEDDE903010094CDE9F6
:101D30000110002315A11748059A00F082FB164DEB
:101D4000002868631FD000F0F9FC012809D0401C6E
:101D500019D1502080F31188BFF34F8FBFF36F8FDD
:101D6000FEE7502080F31188BFF34F8FBFF36F8FD2
:101D70004FF0FF3028630120E8616C6107B0BDE8D7
:101D8000304000F045B807B030BD000049444C4534
:101D900000000000C1130008180000200248816BF9
:101DA000491C81637047000018000020164810B5D8
:101DB000816B11B10121416210BD00214162816935
:101DC000124A01E0B9B1491E01EB810352F82330F8
:101DD000002BF7D001EB810302EB830202F1080430
:101DE00053685B685360A34201D15B685360DA6853
:101DF0000260816110BD502080F31188BFF34F8FC6
:101E0000BFF36F8FFEE700001800002010010020D4
:101E10001CB537480168374A914207D1502080F3FA
:101E20001188BFF34F8FBFF36F8FFEE70068314912
:101E3000491E884207D1502080F31188BFF34F8F8D
:101E4000BFF36F8FFEE72C4908780190FF200870E0
:101E500008788DF800009DF800009DF8002000F043
:101E6000F000904207D0502080F31188BFF34F8FCD
:101E7000BFF36F8FFEE79DF80000204B00F050008D
:101E800018700720986005E09DF8002052008DF83A
:101E90000020401E9DF800201206F5D4986003280B
:101EA00007D0502080F31188BFF34F8FBFF36F8F9F
:101EB000FEE74FF440709860019808700C4820309D
:101EC000016841F470010160016841F070410160F6
:101ED000FFF746FE00205860FEF78EF908480168BB
:101EE00041F040410160FEF773F900201CBD000085
:101EF00000ED00E071C20F4100E400E0840000202A
:101F000034EF00E010B5502080F31188BFF34F8FFD
:101F1000BFF36F8F00F0D4FA18B104494FF080502E
:101F20000860002080F3118810BD000004ED00E07F
:101F300038B5049D18B153B1CAB181B120E0502029
:101F400080F31188BFF34F8FBFF36F8FFEE75020F0
:101F500080F31188BFF34F8FBFF36F8FFEE75020E0
:101F600080F31188BFF34F8FBFF36F8FFEE739B156
:101F7000502080F31188BFF34F8FBFF36F8FFEE7C0
:101F800050241C46012384F846302B460094FFF76A
:101F900047FA204638BD000070B50D46040025D034
:101FA000FFF77CFDD4E90F20216802FB0011A1603E
:101FB0000021A163216861600A46D4E90F01401E37
:101FC00000FB0121E16021464FF0FF3001F8440F92
:101FD000487004F110008DB1FFF72EFD04F12400CC
:101FE000FFF72AFDFFF77AFD012070BD502080F336
:101FF0001188BFF34F8FBFF36F8FFEE72169002970
:10200000F0D000F001FB0028ECD004494FF08050E4
:102010000860BFF34F8FBFF36F8FE3E704ED00E07D
:102020002DE9FF4782B01D468A464FF000080400A4
:1020300003D0BAF1000F08D011E0502080F31188CE
:10204000BFF34F8FBFF36F8FFEE7206C38B1502086
:1020500080F31188BFF34F8FBFF36F8FFEE7022D20
:102060000AD1E06B012807D0502080F31188BFF31C
:102070004F8FBFF36F8FFEE700F00EFA3F4F4FF028
:1020800000094FF0805648B9049838B1502080F3C9
:102090001188BFF34F8FBFF36F8FFEE7FFF7FEFC92
:1020A000A06BE16B884207D3022D05D00498D0B114
:1020B000B8F1000F1AD01EE02A4651462046FFF71D
:1020C00008F9616A19B104F1240000F09DFA20B109
:1020D0003E60BFF34F8FBFF36F8FFFF7FFFC012010
:1020E00006B0BDE8F087FFF7F9FC22E06846FFF78D
:1020F000CFFD4FF00108FFF7F1FCFFF74FFEFFF7B0
:10210000CDFC94F94400401C01D184F8449094F92A
:102110004500401C01D184F84590FFF7DFFC04A97D
:10212000684600F027F930B12046FFF791FB00F038
:10213000A3FA0020D4E7FFF7B1FCA06BE16B884263
:1021400013D1FFF7CBFC04F110000499FFF7AEFDAB
:102150002046FFF77DFB00F08FFA00289ED13E60FD
:10216000BFF34F8FBFF36F8F98E7FFF7B7FC2046A1
:10217000FFF76EFB00F080FA90E7000004ED00E04E
:102180002DE9F0471F4690468946040003D0B9F177
:10219000000F08D011E0502080F31188BFF34F8F5B
:1021A000BFF36F8FFEE7206C38B1502080F31188A9
:1021B000BFF34F8FBFF36F8FFEE7022F0AD1E06BA3
:1021C000012807D0502080F31188BFF34F8FBFF351
:1021D0006F8FFEE7FFF7D6FC5020EFF3118680F3F8
:1021E0001188BFF34F8FBFF36F8FA06BE16B8842F5
:1021F00006D3022F04D0002086F31188BDE8F087B3
:1022000094F945503A4649462046FFF762F8681C63
:1022100004D06D1C84F845500120EDE7606A002869
:10222000FAD004F1240000F0EFF90028F4D0B8F15E
:10223000000FF1D00121C8F80010EDE72DE9F747B4
:10224000002683B08A46040003D0BAF1000F08D0FC
:1022500011E0502080F31188BFF34F8FBFF36F8FD1
:10226000FEE7206C38B1502080F31188BFF34F8F08
:10227000BFF36F8FFEE700F00FF9DFF8F4804FF047
:1022800000094FF0805748B9059838B1502080F3C5
:102290001188BFF34F8FBFF36F8FFEE7FFF7FEFB91
:1022A000A56BC5B151462046FFF700F86D1EA5632A
:1022B000206950B104F1100000F0A6F928B1C8F867
:1022C0000070BFF34F8FBFF36F8FFFF707FC012044
:1022D00006B0BDE8F087059808B11EB106E0FFF72B
:1022E000FDFB27E06846FFF7D3FC0126FFF7F6FB6E
:1022F000FFF754FDFFF7D2FB94F94400401C01D1D5
:1023000084F8449094F94500401C01D184F845902C
:10231000FFF7E4FB05A9684600F02CF800282046EA
:102320000AD0FFF795FA00F0A7F92046FFF724F945
:102330000028B3D00020CBE7FFF71EF990B104F1DD
:1023400024000599FFF7B2FC2046FFF781FA00F060
:1023500093F90028A2D1C8F80070BFF34F8FBFF3E4
:102360006F8F9BE72046FFF773FA00F085F995E73A
:1023700004ED00E02DE9F0410C46050011D0C4B198
:10238000FFF78CFB174B5A696E682068911B471C3E
:1023900017D02F689B6A9F4219D0964217D8012404
:1023A00010E0502080F31188BFF34F8FBFF36F8F81
:1023B000FEE7502080F31188BFF34F8FBFF36F8F7C
:1023C000FEE70024FFF78AFB2046BDE8F081884243
:1023D00005D9401A20602846FFF75AFCF1E7002093
:1023E0002060DCE7180000202DE9FF5F8346DDE96F
:1023F0000E87994616468A469000FFF75FFA050059
:102400001CD05C20FFF75AFA040014D0002025638A
:1024100084F85900CDE90240CDE900874B463246A9
:1024200051465846FFF70EF82046FEF7ABFE012056
:1024300004B0BDE8F09F2846FFF764FB4FF0FF3083
:10244000F6E7F0B585B0DDE90B640A9DA6B1DCB115
:102450005C2700972663022684F85960002604AFA3
:10246000CDE90246CDE90057FEF7ECFF2046FEF726
:1024700089FE049805B0F0BD502080F31188BFF3A9
:102480004F8FBFF36F8FFEE7502080F31188BFF3AB
:102490004F8FBFF36F8FFEE70548C16919B1806B9D
:1024A00018B10020704701207047022070470000DB
:1024B0001800002001484069704700001800002003
:1024C0002DE9F0412E4C0027A06B40B1206A401C42
:1024D0002062606A00B101273846BDE8F081666974
:1024E000761C666113D16068006838B1502080F3B3
:1024F0001188BFF34F8FBFF36F8FFEE76068A1684D
:102500006160A060A06A401CA062FFF721F9206B07
:10251000DFF87080864209D36068006880B1606827
:10252000C068C568686886420DD220632068C06AAA
:1025300000EB800158F821000128CAD90127C8E71B
:102540004FF0FF30F1E7281DFFF74CFAA86A18B1E9
:1025500005F11800FFF746FAE86AA169884200D938
:10256000A06100EB800108EB8100291DFFF78AFACA
:10257000E86A2168C96A8842CED30127CCE7000007
:10258000180000201001002070B504004FF0000179
:1025900033D01B4D2868844207D0502080F3118827
:1025A000BFF34F8FBFF36F8FFEE7206D38B1401E32
:1025B0002065E36CE26A9A421FD040B11DE05020D2
:1025C00080F31188BFF34F8FBFF36F8FFEE7201D9D
:1025D000FFF708FAE06CE062C0F13800A061E06A41
:1025E000A969884200D9A861064900EB800001EB87
:1025F0008000211DFFF746FA0121084670BD00004A
:10260000180000201001002070B5C068C46854B1E3
:1026100004F118000646FFF7E5F9144DA86B50B118
:102620003146134815E0502080F31188BFF34F8FD7
:10263000BFF36F8FFEE7201DFFF7D4F9E06AA969A9
:10264000884200D9A8610B4900EB800001EB8000B3
:10265000211DFFF717FAE06A2968C96A884202D982
:102660000120686270BD002070BD000018000020CD
:1026700098050020100100202DE9F0472C4D002482
:102680002746A86B38B1FFF709FAA86B401EA8636C
:10269000A86B40B146E0502080F31188BFF34F8F04
:1026A000BFF36F8FFEE72969224E0120D1B3A6F553
:1026B000916980463068E0B1F068C46804F11800A0
:1026C000FFF790F9201DFFF78DF9E06AA9698842AC
:1026D00000D9A86100EB800109EB8100211DFFF703
:1026E000D1F9E06A2968C96A8842E3D3C5F8248031
:1026F000E0E70CB1FFF72CF82C6A4CB14FEA080662
:10270000FFF7DEFE00B16E62641EF9D10020286280
:10271000686A38B10849012738070860BFF34F8F4E
:10272000BFF36F8FFFF7DAF93846BDE8F087000096
:10273000180000209805002004ED00E010B586B0D8
:10274000FEF788FD114CA068B8B1002003900490FA
:1027500005AA04A903A8FFF763F9DDE90321022014
:102760008DE8070000230AA10B48059AFFF769FED0
:10277000E06010B106B0012010BD502080F3118838
:10278000BFF34F8FBFF36F8FFEE7000054000020B0
:10279000546D7220537663002D1800082DE9FF4117
:1027A0001E46134602000A9D4FF0000016D0144C3E
:1027B000A768002F0FD0CDE900130292062917DA7F
:1027C000FFF76AFE02284FF000030FD0002269468F
:1027D000A068FFF725FC04B0BDE8F081502080F32D
:1027E0001188BFF34F8FBFF36F8FFEE72A46EEE7E6
:1027F0000023324669463846FFF7C2FCEBE700008B
:1028000054000020702800080000000000000000B4
:10281000000000000000000000020000180000009E
:102820000000000000000000642800080000000014
:102830000000000000000000000000000010000088
:102840000800000000000000000000000000000080
:102850000000000001020304060708090000000050
:1028600001020304757365725461736B000000000C
:1028700064656661756C745461736B009C28000814
:102880000000002090000000560F00082C290008CE
:1028900090000020184D0000660F000800000000A6
:1028A0000000000001000000100000000000000017
:1028B0000024F40000000000000000000000000000
:1028C0000000000000000000000000000000000008
:1028D00000000000000000000000000000000000F8
:1028E00000000000000000000000000000000000E8
:1028F00000000000000000000000000000000000D8
:1029000000000000000000000000000000000000C7
:1029100000000000000000000000000000000000B7
:0C29200000000000AAAAAAAA0000000003
:040000050800019955
:00000001FF
